{
  "contractName": "Tires",
  "abi": [
    {
      "constant": true,
      "inputs": [],
      "name": "party_one",
      "outputs": [
        {
          "name": "",
          "type": "string"
        }
      ],
      "payable": false,
      "stateMutability": "view",
      "type": "function"
    },
    {
      "inputs": [],
      "payable": false,
      "stateMutability": "nonpayable",
      "type": "constructor"
    }
  ],
  "bytecode": "0x608060405234801561001057600080fd5b506040518060400160405280600881526020017f4d696368656c696e0000000000000000000000000000000000000000000000008152506000908051906020019061005c929190610062565b50610107565b828054600181600116156101000203166002900490600052602060002090601f016020900481019282601f106100a357805160ff19168380011785556100d1565b828001600101855582156100d1579182015b828111156100d05782518255916020019190600101906100b5565b5b5090506100de91906100e2565b5090565b61010491905b808211156101005760008160009055506001016100e8565b5090565b90565b61017d806101166000396000f3fe608060405234801561001057600080fd5b506004361061002b5760003560e01c8063071b944614610030575b600080fd5b6100386100b3565b6040518080602001828103825283818151815260200191508051906020019080838360005b8381101561007857808201518184015260208101905061005d565b50505050905090810190601f1680156100a55780820380516001836020036101000a031916815260200191505b509250505060405180910390f35b60008054600181600116156101000203166002900480601f0160208091040260200160405190810160405280929190818152602001828054600181600116156101000203166002900480156101495780601f1061011e57610100808354040283529160200191610149565b820191906000526020600020905b81548152906001019060200180831161012c57829003601f168201915b50505050508156fea165627a7a723058207f60ab08207367cefccf0f941538bccc1d48f55cb9bd1658da3f8136323ab0080029",
  "source": "pragma solidity ^0.5.0;\n\ncontract Tires {\n  string public party_one;\n  //constructor\n  constructor() public {\n    party_one = \"Michelin\";\n\n  }\n}\n",
  "sourcePath": "/Users/zengyuwei/Desktop/bc_demo/contracts/Tires.sol",
  "compiler": {
    "name": "solc",
    "version": "0.5.8+commit.23d335f2.Emscripten.clang"
  },
  "schemaVersion": "3.0.11",
  "updatedAt": "2019-07-21T23:15:11.865Z",
  "devdoc": {
    "methods": {}
  },
  "userdoc": {
    "methods": {}
  }
}